:020000040800F2
:1000000000000120650500083504000837040008D9
:10001000390400083B0400083D040008000000000B
:100020000000000000000000000000003F04000885
:1000300041040008000000004304000845040008D3
:10004000AD050008AD050008AD050008AD050008C8
:10005000AD050008AD050008AD050008AD050008B8
:10006000AD050008AD050008AD050008AD050008A8
:10007000AD050008AD050008AD050008AD05000898
:10008000AD050008AD050008AD050008AD05000888
:10009000AD050008AD050008AD050008AD05000878
:1000A000AD050008AD050008AD050008AD05000868
:1000B000AD050008AD050008AD050008AD05000858
:1000C000AD050008AD050008AD050008AD05000848
:1000D000AD05000855030008AD050008AD05000892
:1000E000AD050008AD050008AD050008AD05000828
:1000F000AD050008AD050008AD050008AD05000818
:10010000AD050008AD050008AD050008AD05000807
:10011000AD050008AD050008AD050008AD050008F7
:10012000AD050008AD050008AD050008AD050008E7
:1001300000000000000000000000000000000000BF
:1001400000000000000000000000000000000000AF
:10015000000000000000000000000000000000009F
:10016000000000000000000000000000000000008F
:10017000000000000000000000000000000000007F
:10018000000000000000000000000000000000006F
:10019000000000000000000000000000000000005F
:1001A000000000000000000000000000000000004F
:1001B000000000000000000000000000000000003F
:1001C000000000000000000000000000000000002F
:1001D000000000000000000000000000000000001F
:0401E0005FF8E0F1F3
:1001E40010B5054C237833B9044B13B10448AFF36D
:1001F40000800123237010BD34040020000000009F
:10020400D806000808B5034B1BB103490348AFF3F4
:10021400008008BD0000000038040020D806000853
:10022400042806D04FF0E022136923F0040313617D
:1002340070474FF0E022136943F0040313617047E1
:1002440030B5CB7803F00F02964613F0100F03D0AD
:1002540091F802E04EEA020E0B7803B3046800231F
:1002640001E042610133072B18D801229A40B1F80A
:1002740000C032EA0C05F5D14FEA830C0F2505FACC
:100284000CF524EA05040EFA0CFC4CEA0404CD78BF
:10029400282DE6D0482DE5D10261E3E704600B8800
:1002A400FF2B25D94468002303E0CD78482D1CD0CA
:1002B4000133072B1BD803F1080C012202FA0CF2BC
:1002C400B1F800C032EA0C05F2D14FEA830C0F25D5
:1002D40005FA0CF524EA05040EFA0CFC4CEA0404B5
:1002E400CD78282DE1D14261DFE70261E0E7446087
:1002F40030BD01617047000021B1054A936918437C
:1003040090617047024A936923EA00009061704744
:100314000010024008B56FF00400FFF781FF084B9E
:100324001B68084AA2FB0323C3F34753064A13700E
:10033400C3EB431203EB8203DA00044B1A8008BDBB
:100344000000002083DE1B435204002050040020E0
:10035400184B1B8813F0200F26D0164B9B88DBB25A
:1003640015490A88B1F9001000291DDB12F4804FE9
:100374000CD00A2B03D0104B00221A8070476FEA6E
:1003840042426FEA52420C4B1A8070470D2B0CD03C
:10039400C2F30D0109484354013292B2064B1A804C
:1003A400C72A01D900221A80704742F48042024BC6
:1003B4001A807047003801401C05002054040020B6
:1003C400F0B583B001210820FFF796FF2024ADF893
:1003D400044010278DF8077003258DF806500F4E42
:1003E40001A93046FFF72CFF01214020FFF784FFCD
:1003F400ADF804408DF807708DF80650084D01A93A
:100404002846FFF71DFF21463046FFF772FF2146BD
:100414002846FFF76EFF03B0F0BD00BF000C01409B
:100424000018014008B5FFF7CBFFFFF773FFFEE7A5
:100434007047FEE7FEE7FEE7FEE770477047704748
:100444007047000082B00023019300932C4A136884
:1004540043F4803313602A4B1B6803F40033009386
:10046400019B01330193009B1BB9019BB3F5A06F62
:10047400F1D1234B1B6813F4003F06D001230093F2
:10048400009B012B04D002B0704700230093F7E7D0
:100494001C4B1A6842F010021A601A6822F0030218
:1004A4001A601A6842F002021A60A3F580535A686F
:1004B4005A605A685A605A6842F480625A605A68AC
:1004C40022F47C125A605A6842F4E8125A601A689C
:1004D40042F080721A600A4B1B6813F0007FFAD056
:1004E400074B5A6822F003025A605A6842F002022B
:1004F4005A60034B5B6803F00C03082BF9D1C2E785
:10050400001002400020024008B5FFF79BFF08BD21
:1005140008B5104B1A6842F001021A6059680E4A75
:100524000A405A601A6822F0847222F480321A60F7
:100534001A6822F480221A605A6822F4FE025A6071
:100544004FF41F029A60FFF7DFFF044B4FF0006285
:100554009A6008BD001002400000FFF800ED00E0C2
:100564000C480D490D4A002302E0D458C45004330A
:10057400C4188C42F9D30A4A0A4C002301E01360E0
:100584000432A242FBD3FFF7C3FF00F00FF8FFF7DA
:1005940049FF7047000000203404002000070008D1
:1005A4003404002024050020FEE7000070B50D4E41
:1005B4000D4D761BB61006D0002455F8043B0134CB
:1005C4009847A642F9D1094E094D00F083F8761BED
:1005D400B61006D0002455F8043B01349847A642CF
:1005E400F9D170BDF4060008F4060008FC06000802
:1005F400F4060008024B13B1024800F005B8704736
:100604000000000019060008002301461A46184697
:1006140000F01AB838B5084B084D5B1B9C1007D086
:10062400043B1D44013C55F804399847002CF9D18A
:10063400BDE8384000F054B800070008FC06000884
:10064400704700BF704700BF2DE9F047DFF87CA07A
:100654000646DAF8000098460F469146FFF7F0FF89
:100664001B4B1B68D3F8484124B365681F2D26DC57
:100674005EB96B1C0235DAF80000636044F825703B
:10068400FFF7E0FF0020BDE8F087012304EB8501BC
:10069400C1F88890D4F88821AB401A43022EC4F8DC
:1006A4008821C1F80881E4D1D4F88C211343C4F81B
:1006B4008C31DEE703F5A674C3F84841D5E7DAF8D0
:1006C4000000FFF7BFFF4FF0FF30DCE730040020ED
:1006D400F0060008F8B500BFF8BC08BC9E46704799
:0C06E400F8B500BFF8BC08BC9E4670478B
:0406F00008000020DE
:0806F400F905000809020008E5
:0406FC00E50100080C
:1007000000A24A040000000000000000F4020020E3
:100710005C030020C4030020000000000000000073
:1007200000000000000000000000000000000000C9
:1007300000000000000000000000000000000000B9
:1007400000000000000000000000000000000000A9
:100750000000000000000000000000000000000099
:100760000000000000000000000000000000000089
:100770000000000000000000000000000000000079
:100780000000000000000000000000000000000069
:100790000000000000000000000000000000000059
:1007A0000000000000000000000000000000000049
:1007B00001000000000000000E33CDAB34126DE6E6
:1007C000ECDE05000B00000000000000000000004F
:1007D0000000000000000000000000000000000019
:1007E0000000000000000000000000000000000009
:1007F00000000000000000000000000000000000F9
:1008000000000000000000000000000000000000E8
:040B3000200500207C
:040000050800056585
:00000001FF
